012345678912018112920180925201809250017799FICTI01A                    002.002c                                                                                                                                                                                                                                                                                                                                                                                                                                                                    
11234567891201809252018092513173601016831815412345678910111213141516171819202000001              00000000001000000000000098M1 1 012018102500000000000000000000000000000000000010000000000000000000000000002000000000000000000000000000000000000000000000000009801  03MASTERCARD                    ME1201                                1003413168    1234567890589082115720                                                                                                                                                                     
11234567891201809252018092513183401016831815410203040506070809010203040506070000002              00000000001010000000000100M1 1 012018102500000000000000000000000000000000000010100000000000000000000000001000000000000000000000000000000000000000000000000010001  03MASTERCARD                    ME1201                                1003413100    2345678901589082115721                                                                                                                                                                     
11234567891201809252018092513424201016831815411122233344455566677788899911120000003              00000000129900000000006319M2 2 022018112500000000000000000000000000000000001299000000000000000000000000351000000000000000000000000000000000000000000000001263901  03MASTERCARD                    ME1201                                1003410575    3456789012554067172924                                                                                                                                                                     
11234567891201809252018092513424201016831815411122233344455566677788899911122000004              00000000129900000000006320M2 1 022018102500000000000000000000000000000000001299000000000000000000000000351000000000000000000000000000000000000000000000001263901  03MASTERCARD                    ME1201                                1003410575    4567890123554067172925                                                                                                                                                                     
112345678912018092520180925140410010168318154AA123BB123CC123DD123EE123FF123GG855003              00000000064900000000006334M1 1 012018102500000000000000000000000000000000000649000000000000000000000000156000000000000000000000000000000000000000000000000633401  03VISA                          ME1201                                1003512039    5678901234541047155023                                                                                                                                                                     
11234567891201809252018092513173601016831815413345678910111213141516171819202000001              00000000001000000000000098M1 1 012018102500000000000000000000000000000000000010000000000000000000000000002000000000000000000000000000000000000000000000000009801  03MASTERCARD                    ME1201                                1003413168    1234567890589082115720                                                                                                                                                                     
11234567891201809252018092513183401016831815413203040506070809010203040506070000002              00000000001010000000000100M1 1 012018102500000000000000000000000000000000000010100000000000000000000000001000000000000000000000000000000000000000000000000010001  03MASTERCARD                    ME1201                                1003413100    2345678901589082115721                                                                                                                                                                     
11234567891201809252018092513424201016831815413122233344455566677788899911120000003              00000000129900000000006319M2 2 022018112500000000000000000000000000000000001299000000000000000000000000351000000000000000000000000000000000000000000000001263901  03MASTERCARD                    ME1201                                1003410575    3456789012554067172924                                                                                                                                                                     
11234567891201809252018092513424201016831815413122233344455566677788899911122000004              00000000129900000000006320M2 1 022018102500000000000000000000000000000000001299000000000000000000000000351000000000000000000000000000000000000000000000001263901  03MASTERCARD                    ME1201                                1003410575    4567890123554067172925                                                                                                                                                                     
112345678912018092520180925140410010168318154A3123BB123CC123DD123EE123FF123GG855003              00000000064900000000006334M1 1 012018102500000000000000000000000000000000000649000000000000000000000000156000000000000000000000000000000000000000000000000633401  03VISA                          ME1201                                1003512039    5678901234541047155023                                                                                                                                                                     
11234567891201809252018092513173601016831815414345678910111213141516171819202000001              00000000001000000000000098M1 1 012018102500000000000000000000000000000000000010000000000000000000000000002000000000000000000000000000000000000000000000000009801  03MASTERCARD                    ME1201                                1003413168    1234567890589082115720                                                                                                                                                                     
11234567891201809252018092513183401016831815414203040506070809010203040506070000002              00000000001010000000000100M1 1 012018102500000000000000000000000000000000000010100000000000000000000000001000000000000000000000000000000000000000000000000010001  03MASTERCARD                    ME1201                                1003413100    2345678901589082115721                                                                                                                                                                     
11234567891201809252018092513424201016831815414122233344455566677788899911120000003              00000000129900000000006319M2 2 022018112500000000000000000000000000000000001299000000000000000000000000351000000000000000000000000000000000000000000000001263901  03MASTERCARD                    ME1201                                1003410575    3456789012554067172924                                                                                                                                                                     
11234567891201809252018092513424201016831815414122233344455566677788899911122000004              00000000129900000000006320M2 1 022018102500000000000000000000000000000000001299000000000000000000000000351000000000000000000000000000000000000000000000001263901  03MASTERCARD                    ME1201                                1003410575    4567890123554067172925                                                                                                                                                                     
112345678912018092520180925140410010168318154A4123BB123CC123DD123EE123FF123GG855003              00000000064900000000006334M1 1 012018102500000000000000000000000000000000000649000000000000000000000000156000000000000000000000000000000000000000000000000633401  03VISA                          ME1201                                1003512039    5678901234541047155023                                                                                                                                                                     
11234567891201809252018092513173601016831815415345678910111213141516171819202000001              00000000001000000000000098M1 1 012018102500000000000000000000000000000000000010000000000000000000000000002000000000000000000000000000000000000000000000000009801  03MASTERCARD                    ME1201                                1003413168    1234567890589082115720                                                                                                                                                                     
11234567891201809252018092513183401016831815415203040506070809010203040506070000002              00000000001010000000000100M1 1 012018102500000000000000000000000000000000000010100000000000000000000000001000000000000000000000000000000000000000000000000010001  03MASTERCARD                    ME1201                                1003413100    2345678901589082115721                                                                                                                                                                     
11234567891201809252018092513424201016831815415122233344455566677788899911120000003              00000000129900000000006319M2 2 022018112500000000000000000000000000000000001299000000000000000000000000351000000000000000000000000000000000000000000000001263901  03MASTERCARD                    ME1201                                1003410575    3456789012554067172924                                                                                                                                                                     
11234567891201809252018092513424201016831815415122233344455566677788899911122000004              00000000129900000000006320M2 1 022018102500000000000000000000000000000000001299000000000000000000000000351000000000000000000000000000000000000000000000001263901  03MASTERCARD                    ME1201                                1003410575    4567890123554067172925                                                                                                                                                                     
112345678912018092520180925140410010168318154A5123BB123CC123DD123EE123FF123GG855003              00000000064900000000006334M1 1 012018102500000000000000000000000000000000000649000000000000000000000000156000000000000000000000000000000000000000000000000633401  03VISA                          ME1201                                1003512039    5678901234541047155023                                                                                                                                                                     
11234567891201809252018092513173601016831815416345678910111213141516171819202000001              00000000001000000000000098M1 1 012018102500000000000000000000000000000000000010000000000000000000000000002000000000000000000000000000000000000000000000000009801  03MASTERCARD                    ME1201                                1003413168    1234567890589082115720                                                                                                                                                                     
11234567891201809252018092513183401016831815416203040506070809010203040506070000002              00000000001010000000000100M1 1 012018102500000000000000000000000000000000000010100000000000000000000000001000000000000000000000000000000000000000000000000010001  03MASTERCARD                    ME1201                                1003413100    2345678901589082115721                                                                                                                                                                     
11234567891201809252018092513424201016831815416122233344455566677788899911120000003              00000000129900000000006319M2 2 022018112500000000000000000000000000000000001299000000000000000000000000351000000000000000000000000000000000000000000000001263901  03MASTERCARD                    ME1201                                1003410575    3456789012554067172924                                                                                                                                                                     
11234567891201809252018092513424201016831815416122233344455566677788899911122000004              00000000129900000000006320M2 1 022018102500000000000000000000000000000000001299000000000000000000000000351000000000000000000000000000000000000000000000001263901  03MASTERCARD                    ME1201                                1003410575    4567890123554067172925                                                                                                                                                                     
112345678912018092520180925140410010168318154A6123BB123CC123DD123EE123FF123GG855003              00000000064900000000006334M1 1 012018102500000000000000000000000000000000000649000000000000000000000000156000000000000000000000000000000000000000000000000633401  03VISA                          ME1201                                1003512039    5678901234541047155023                                                                                                                                                                     
11234567891201809252018092513173601016831815417345678910111213141516171819202000001              00000000001000000000000098M1 1 012018102500000000000000000000000000000000000010000000000000000000000000002000000000000000000000000000000000000000000000000009801  03MASTERCARD                    ME1201                                1003413168    1234567890589082115720                                                                                                                                                                     
11234567891201809252018092513183401016831815417203040506070809010203040506070000002              00000000001010000000000100M1 1 012018102500000000000000000000000000000000000010100000000000000000000000001000000000000000000000000000000000000000000000000010001  03MASTERCARD                    ME1201                                1003413100    2345678901589082115721                                                                                                                                                                     
11234567891201809252018092513424201016831815417122233344455566677788899911120000003              00000000129900000000006319M2 2 022018112500000000000000000000000000000000001299000000000000000000000000351000000000000000000000000000000000000000000000001263901  03MASTERCARD                    ME1201                                1003410575    3456789012554067172924                                                                                                                                                                     
11234567891201809252018092513424201016831815417122233344455566677788899911122000004              00000000129900000000006320M2 1 022018102500000000000000000000000000000000001299000000000000000000000000351000000000000000000000000000000000000000000000001263901  03MASTERCARD                    ME1201                                1003410575    4567890123554067172925                                                                                                                                                                     
112345678912018092520180925140410010168318154A7123BB123CC123DD123EE123FF123GG855003              00000000064900000000006334M1 1 012018102500000000000000000000000000000000000649000000000000000000000000156000000000000000000000000000000000000000000000000633401  03VISA                          ME1201                                1003512039    5678901234541047155023                                                                                                                                                                     
11234567891201809252018092513173601016831815418345678910111213141516171819202000001              00000000001000000000000098M1 1 012018102500000000000000000000000000000000000010000000000000000000000000002000000000000000000000000000000000000000000000000009801  03MASTERCARD                    ME1201                                1003413168    1234567890589082115720                                                                                                                                                                     
11234567891201809252018092513183401016831815418203040506070809010203040506070000002              00000000001010000000000100M1 1 012018102500000000000000000000000000000000000010100000000000000000000000001000000000000000000000000000000000000000000000000010001  03MASTERCARD                    ME1201                                1003413100    2345678901589082115721                                                                                                                                                                     
11234567891201809252018092513424201016831815418122233344455566677788899911120000003              00000000129900000000006319M2 2 022018112500000000000000000000000000000000001299000000000000000000000000351000000000000000000000000000000000000000000000001263901  03MASTERCARD                    ME1201                                1003410575    3456789012554067172924                                                                                                                                                                     
11234567891201809252018092513424201016831815418122233344455566677788899911122000004              00000000129900000000006320M2 1 022018102500000000000000000000000000000000001299000000000000000000000000351000000000000000000000000000000000000000000000001263901  03MASTERCARD                    ME1201                                1003410575    4567890123554067172925                                                                                                                                                                     
112345678912018092520180925140410010168318154A8123BB123CC123DD123EE123FF123GG855003              00000000064900000000006334M1 1 012018102500000000000000000000000000000000000649000000000000000000000000156000000000000000000000000000000000000000000000000633401  03VISA                          ME1201                                1003512039    5678901234541047155023                                                                                                                                                                     
11234567891201809252018092513173601016831815419345678910111213141516171819202000001              00000000001000000000000098M1 1 012018102500000000000000000000000000000000000010000000000000000000000000002000000000000000000000000000000000000000000000000009801  03MASTERCARD                    ME1201                                1003413168    1234567890589082115720                                                                                                                                                                     
11234567891201809252018092513183401016831815419203040506070809010203040506070000002              00000000001010000000000100M1 1 012018102500000000000000000000000000000000000010100000000000000000000000001000000000000000000000000000000000000000000000000010001  03MASTERCARD                    ME1201                                1003413100    2345678901589082115721                                                                                                                                                                     
11234567891201809252018092513424201016831815419122233344455566677788899911120000003              00000000129900000000006319M2 2 022018112500000000000000000000000000000000001299000000000000000000000000351000000000000000000000000000000000000000000000001263901  03MASTERCARD                    ME1201                                1003410575    3456789012554067172924                                                                                                                                                                     
11234567891201809252018092513424201016831815419122233344455566677788899911122000004              00000000129900000000006320M2 1 022018102500000000000000000000000000000000001299000000000000000000000000351000000000000000000000000000000000000000000000001263901  03MASTERCARD                    ME1201                                1003410575    4567890123554067172925                                                                                                                                                                     
112345678912018092520180925140410010168318154A9123BB123CC123DD123EE123FF123GG855003              00000000064900000000006334M1 1 012018102500000000000000000000000000000000000649000000000000000000000000156000000000000000000000000000000000000000000000000633401  03VISA                          ME1201                                1003512039    5678901234541047155023                                                                                                                                                                     
11234567891201809252018092513173601016831815410345678910111213141516171819202000001              00000000001000000000000098M1 1 012018102500000000000000000000000000000000000010000000000000000000000000002000000000000000000000000000000000000000000000000009801  03MASTERCARD                    ME1201                                1003413168    1234567890589082115720                                                                                                                                                                     
11234567891201809252018092513183401016831815411203040506070809010203040506070000002              00000000001010000000000100M1 1 012018102500000000000000000000000000000000000010100000000000000000000000001000000000000000000000000000000000000000000000000010001  03MASTERCARD                    ME1201                                1003413100    2345678901589082115721                                                                                                                                                                     
11234567891201809252018092513424201016831815410122233344455566677788899911120000003              00000000129900000000006319M2 2 022018112500000000000000000000000000000000001299000000000000000000000000351000000000000000000000000000000000000000000000001263901  03MASTERCARD                    ME1201                                1003410575    3456789012554067172924                                                                                                                                                                     
11234567891201809252018092513424201016831815410122233344455566677788899911122000004              00000000129900000000006320M2 1 022018102500000000000000000000000000000000001299000000000000000000000000351000000000000000000000000000000000000000000000001263901  03MASTERCARD                    ME1201                                1003410575    4567890123554067172925                                                                                                                                                                     
112345678912018092520180925140410010168318154A0123BB123CC123DD123EE123FF123GG855003              00000000064900000000006334M1 1 012018102500000000000000000000000000000000000649000000000000000000000000156000000000000000000000000000000000000000000000000633401  03VISA                          ME1201                                1003512039    5678901234541047155023                                                                                                                                                                     
11234567891201809252018092513173601016831815412345678910111213141516171819202000001              00000000001000000000000098M1 1 012018102500000000000000000000000000000000000010000000000000000000000000002000000000000000000000000000000000000000000000000009801  03MASTERCARD                    ME1201                                1003413168    1234567890589082115720                                                                                                                                                                     
11234567891201809252018092513183401016831815410203040506070809010203040506070000002              00000000001010000000000100M1 1 012018102500000000000000000000000000000000000010100000000000000000000000001000000000000000000000000000000000000000000000000010001  03MASTERCARD                    ME1201                                1003413100    2345678901589082115721                                                                                                                                                                     
11234567891201809252018092513424201016831815411122233344455566677788899911120000003              00000000129900000000006319M2 2 022018112500000000000000000000000000000000001299000000000000000000000000351000000000000000000000000000000000000000000000001263901  03MASTERCARD                    ME1201                                1003410575    3456789012554067172924                                                                                                                                                                     
11234567891201809252018092513424201016831815411122233344455566677788899911122000004              00000000129900000000006320M2 1 022018102500000000000000000000000000000000001299000000000000000000000000351000000000000000000000000000000000000000000000001263901  03MASTERCARD                    ME1201                                1003410575    4567890123554067172925                                                                                                                                                                     
112345678912018092520180925140410010168318154AA123BB123CC123DD123EE123FF123GG855003              00000000064900000000006334M1 1 012018102500000000000000000000000000000000000649000000000000000000000000156000000000000000000000000000000000000000000000000633401  03VISA                          ME1201                                1003512039    5678901234541047155023                                                                                                                                                                     
11234567891201809252018092513173601016831815412345678910111213141516171819202000001              00000000001000000000000098M1 1 012018102500000000000000000000000000000000000010000000000000000000000000002000000000000000000000000000000000000000000000000009801  03MASTERCARD                    ME1201                                1003413168    1234567890589082115720                                                                                                                                                                     
11234567891201809252018092513183401016831815410203040506070809010203040506070000002              00000000001010000000000100M1 1 012018102500000000000000000000000000000000000010100000000000000000000000001000000000000000000000000000000000000000000000000010001  03MASTERCARD                    ME1201                                1003413100    2345678901589082115721                                                                                                                                                                     
11234567891201809252018092513424201016831815411122233344455566677788899911120000003              00000000129900000000006319M2 2 022018112500000000000000000000000000000000001299000000000000000000000000351000000000000000000000000000000000000000000000001263901  03MASTERCARD                    ME1201                                1003410575    3456789012554067172924                                                                                                                                                                     
11234567891201809252018092513424201016831815411122233344455566677788899911122000004              00000000129900000000006320M2 1 022018102500000000000000000000000000000000001299000000000000000000000000351000000000000000000000000000000000000000000000001263901  03MASTERCARD                    ME1201                                1003410575    4567890123554067172925                                                                                                                                                                     
112345678912018092520180925140410010168318154AA123BB123CC123DD123EE123FF123GG855003              00000000064900000000006334M1 1 012018102500000000000000000000000000000000000649000000000000000000000000156000000000000000000000000000000000000000000000000633401  03VISA                          ME1201                                1003512039    5678901234541047155023                                                                                                                                                                     
11234567891201809252018092513173601016831815412345678910111213141516171819202000001              00000000001000000000000098M1 1 012018102500000000000000000000000000000000000010000000000000000000000000002000000000000000000000000000000000000000000000000009801  03MASTERCARD                    ME1201                                1003413168    1234567890589082115720                                                                                                                                                                     
11234567891201809252018092513183401016831815410203040506070809010203040506070000002              00000000001010000000000100M1 1 012018102500000000000000000000000000000000000010100000000000000000000000001000000000000000000000000000000000000000000000000010001  03MASTERCARD                    ME1201                                1003413100    2345678901589082115721                                                                                                                                                                     
11234567891201809252018092513424201016831815411122233344455566677788899911120000003              00000000129900000000006319M2 2 022018112500000000000000000000000000000000001299000000000000000000000000351000000000000000000000000000000000000000000000001263901  03MASTERCARD                    ME1201                                1003410575    3456789012554067172924                                                                                                                                                                     
11234567891201809252018092513424201016831815411122233344455566677788899911122000004              00000000129900000000006320M2 1 022018102500000000000000000000000000000000001299000000000000000000000000351000000000000000000000000000000000000000000000001263901  03MASTERCARD                    ME1201                                1003410575    4567890123554067172925                                                                                                                                                                     
112345678912018092520180925140410010168318154AA123BB123CC123DD123EE123FF123GG855003              00000000064900000000006334M1 1 012018102500000000000000000000000000000000000649000000000000000000000000156000000000000000000000000000000000000000000000000633401  03VISA                          ME1201                                1003512039    5678901234541047155023                                                                                                                                                                     
11234567891201809252018092513173601016831815412345678910111213141516171819202000001              00000000001000000000000098M1 1 012018102500000000000000000000000000000000000010000000000000000000000000002000000000000000000000000000000000000000000000000009801  03MASTERCARD                    ME1201                                1003413168    1234567890589082115720                                                                                                                                                                     
11234567891201809252018092513183401016831815410203040506070809010203040506070000002              00000000001010000000000100M1 1 012018102500000000000000000000000000000000000010100000000000000000000000001000000000000000000000000000000000000000000000000010001  03MASTERCARD                    ME1201                                1003413100    2345678901589082115721                                                                                                                                                                     
11234567891201809252018092513424201016831815411122233344455566677788899911120000003              00000000129900000000006319M2 2 022018112500000000000000000000000000000000001299000000000000000000000000351000000000000000000000000000000000000000000000001263901  03MASTERCARD                    ME1201                                1003410575    3456789012554067172924                                                                                                                                                                     
11234567891201809252018092513424201016831815411122233344455566677788899911122000004              00000000129900000000006320M2 1 022018102500000000000000000000000000000000001299000000000000000000000000351000000000000000000000000000000000000000000000001263901  03MASTERCARD                    ME1201                                1003410575    4567890123554067172925                                                                                                                                                                     
112345678912018092520180925140410010168318154AA123BB123CC123DD123EE123FF123GG855003              00000000064900000000006334M1 1 012018102500000000000000000000000000000000000649000000000000000000000000156000000000000000000000000000000000000000000000000633401  03VISA                          ME1201                                1003512039    5678901234541047155023                                                                                                                                                                     
11234567891201809252018092513173601016831815412345678910111213141516171819202000001              00000000001000000000000098M1 1 012018102500000000000000000000000000000000000010000000000000000000000000002000000000000000000000000000000000000000000000000009801  03MASTERCARD                    ME1201                                1003413168    1234567890589082115720                                                                                                                                                                     
11234567891201809252018092513183401016831815410203040506070809010203040506070000002              00000000001010000000000100M1 1 012018102500000000000000000000000000000000000010100000000000000000000000001000000000000000000000000000000000000000000000000010001  03MASTERCARD                    ME1201                                1003413100    2345678901589082115721                                                                                                                                                                     
11234567891201809252018092513424201016831815411122233344455566677788899911120000003              00000000129900000000006319M2 2 022018112500000000000000000000000000000000001299000000000000000000000000351000000000000000000000000000000000000000000000001263901  03MASTERCARD                    ME1201                                1003410575    3456789012554067172924                                                                                                                                                                     
11234567891201809252018092513424201016831815411122233344455566677788899911122000004              00000000129900000000006320M2 1 022018102500000000000000000000000000000000001299000000000000000000000000351000000000000000000000000000000000000000000000001263901  03MASTERCARD                    ME1201                                1003410575    4567890123554067172925                                                                                                                                                                     
112345678912018092520180925140410010168318154AA123BB123CC123DD123EE123FF123GG855003              00000000064900000000006334M1 1 012018102500000000000000000000000000000000000649000000000000000000000000156000000000000000000000000000000000000000000000000633401  03VISA                          ME1201                                1003512039    5678901234541047155023                                                                                                                                                                     
11234567891201809252018092513173601016831815412345678910111213141516171819202000001              00000000001000000000000098M1 1 012018102500000000000000000000000000000000000010000000000000000000000000002000000000000000000000000000000000000000000000000009801  03MASTERCARD                    ME1201                                1003413168    1234567890589082115720                                                                                                                                                                     
11234567891201809252018092513183401016831815410203040506070809010203040506070000002              00000000001010000000000100M1 1 012018102500000000000000000000000000000000000010100000000000000000000000001000000000000000000000000000000000000000000000000010001  03MASTERCARD                    ME1201                                1003413100    2345678901589082115721                                                                                                                                                                     
11234567891201809252018092513424201016831815411122233344455566677788899911120000003              00000000129900000000006319M2 2 022018112500000000000000000000000000000000001299000000000000000000000000351000000000000000000000000000000000000000000000001263901  03MASTERCARD                    ME1201                                1003410575    3456789012554067172924                                                                                                                                                                     
11234567891201809252018092513424201016831815411122233344455566677788899911122000004              00000000129900000000006320M2 1 022018102500000000000000000000000000000000001299000000000000000000000000351000000000000000000000000000000000000000000000001263901  03MASTERCARD                    ME1201                                1003410575    4567890123554067172925                                                                                                                                                                     
112345678912018092520180925140410010168318154AA123BB123CC123DD123EE123FF123GG855003              00000000064900000000006334M1 1 012018102500000000000000000000000000000000000649000000000000000000000000156000000000000000000000000000000000000000000000000633401  03VISA                          ME1201                                1003512039    5678901234541047155023                                                                                                                                                                     
11234567891201809252018092513173601016831815412345678910111213141516171819202000001              00000000001000000000000098M1 1 012018102500000000000000000000000000000000000010000000000000000000000000002000000000000000000000000000000000000000000000000009801  03MASTERCARD                    ME1201                                1003413168    1234567890589082115720                                                                                                                                                                     
11234567891201809252018092513183401016831815410203040506070809010203040506070000002              00000000001010000000000100M1 1 012018102500000000000000000000000000000000000010100000000000000000000000001000000000000000000000000000000000000000000000000010001  03MASTERCARD                    ME1201                                1003413100    2345678901589082115721                                                                                                                                                                     
11234567891201809252018092513424201016831815411122233344455566677788899911120000003              00000000129900000000006319M2 2 022018112500000000000000000000000000000000001299000000000000000000000000351000000000000000000000000000000000000000000000001263901  03MASTERCARD                    ME1201                                1003410575    3456789012554067172924                                                                                                                                                                     
11234567891201809252018092513424201016831815411122233344455566677788899911122000004              00000000129900000000006320M2 1 022018102500000000000000000000000000000000001299000000000000000000000000351000000000000000000000000000000000000000000000001263901  03MASTERCARD                    ME1201                                1003410575    4567890123554067172925                                                                                                                                                                     
112345678912018092520180925140410010168318154AA123BB123CC123DD123EE123FF123GG855003              00000000064900000000006334M1 1 012018102500000000000000000000000000000000000649000000000000000000000000156000000000000000000000000000000000000000000000000633401  03VISA                          ME1201                                1003512039    5678901234541047155023                                                                                                                                                                     
11234567891201809252018092513173601016831815412345678910111213141516171819202000001              00000000001000000000000098M1 1 012018102500000000000000000000000000000000000010000000000000000000000000002000000000000000000000000000000000000000000000000009801  03MASTERCARD                    ME1201                                1003413168    1234567890589082115720                                                                                                                                                                     
11234567891201809252018092513183401016831815410203040506070809010203040506070000002              00000000001010000000000100M1 1 012018102500000000000000000000000000000000000010100000000000000000000000001000000000000000000000000000000000000000000000000010001  03MASTERCARD                    ME1201                                1003413100    2345678901589082115721                                                                                                                                                                     
11234567891201809252018092513424201016831815411122233344455566677788899911120000003              00000000129900000000006319M2 2 022018112500000000000000000000000000000000001299000000000000000000000000351000000000000000000000000000000000000000000000001263901  03MASTERCARD                    ME1201                                1003410575    3456789012554067172924                                                                                                                                                                     
11234567891201809252018092513424201016831815411122233344455566677788899911122000004              00000000129900000000006320M2 1 022018102500000000000000000000000000000000001299000000000000000000000000351000000000000000000000000000000000000000000000001263901  03MASTERCARD                    ME1201                                1003410575    4567890123554067172925                                                                                                                                                                     
112345678912018092520180925140410010168318154AA123BB123CC123DD123EE123FF123GG855003              00000000064900000000006334M1 1 012018102500000000000000000000000000000000000649000000000000000000000000156000000000000000000000000000000000000000000000000633401  03VISA                          ME1201                                1003512039    5678901234541047155023                                                                                                                                                                     
11234567891201809252018092513173601016831815412345678910111213141516171819202000001              00000000001000000000000098M1 1 012018102500000000000000000000000000000000000010000000000000000000000000002000000000000000000000000000000000000000000000000009801  03MASTERCARD                    ME1201                                1003413168    1234567890589082115720                                                                                                                                                                     
11234567891201809252018092513183401016831815410203040506070809010203040506070000002              00000000001010000000000100M1 1 012018102500000000000000000000000000000000000010100000000000000000000000001000000000000000000000000000000000000000000000000010001  03MASTERCARD                    ME1201                                1003413100    2345678901589082115721                                                                                                                                                                     
11234567891201809252018092513424201016831815411122233344455566677788899911120000003              00000000129900000000006319M2 2 022018112500000000000000000000000000000000001299000000000000000000000000351000000000000000000000000000000000000000000000001263901  03MASTERCARD                    ME1201                                1003410575    3456789012554067172924                                                                                                                                                                     
11234567891201809252018092513424201016831815411122233344455566677788899911122000004              00000000129900000000006320M2 1 022018102500000000000000000000000000000000001299000000000000000000000000351000000000000000000000000000000000000000000000001263901  03MASTERCARD                    ME1201                                1003410575    4567890123554067172925                                                                                                                                                                     
112345678912018092520180925140410010168318154AA123BB123CC123DD123EE123FF123GG855003              00000000064900000000006334M1 1 012018102500000000000000000000000000000000000649000000000000000000000000156000000000000000000000000000000000000000000000000633401  03VISA                          ME1201                                1003512039    5678901234541047155023                                                                                                                                                                     
11234567891201809252018092513173601016831815412345678910111213141516171819202000001              00000000001000000000000098M1 1 012018102500000000000000000000000000000000000010000000000000000000000000002000000000000000000000000000000000000000000000000009801  03MASTERCARD                    ME1201                                1003413168    1234567890589082115720                                                                                                                                                                     
11234567891201809252018092513183401016831815410203040506070809010203040506070000002              00000000001010000000000100M1 1 012018102500000000000000000000000000000000000010100000000000000000000000001000000000000000000000000000000000000000000000000010001  03MASTERCARD                    ME1201                                1003413100    2345678901589082115721                                                                                                                                                                     
11234567891201809252018092513424201016831815411122233344455566677788899911120000003              00000000129900000000006319M2 2 022018112500000000000000000000000000000000001299000000000000000000000000351000000000000000000000000000000000000000000000001263901  03MASTERCARD                    ME1201                                1003410575    3456789012554067172924                                                                                                                                                                     
11234567891201809252018092513424201016831815411122233344455566677788899911122000004              00000000129900000000006320M2 1 022018102500000000000000000000000000000000001299000000000000000000000000351000000000000000000000000000000000000000000000001263901  03MASTERCARD                    ME1201                                1003410575    4567890123554067172925                                                                                                                                                                     
112345678912018092520180925140410010168318154AA123BB123CC123DD123EE123FF123GG855003              00000000064900000000006334M1 1 012018102500000000000000000000000000000000000649000000000000000000000000156000000000000000000000000000000000000000000000000633401  03VISA                          ME1201                                1003512039    5678901234541047155023                                                                                                                                                                     
11234567891201809252018092513173601016831815412345678910111213141516171819202000001              00000000001000000000000098M1 1 012018102500000000000000000000000000000000000010000000000000000000000000002000000000000000000000000000000000000000000000000009801  03MASTERCARD                    ME1201                                1003413168    1234567890589082115720                                                                                                                                                                     
11234567891201809252018092513183401016831815410203040506070809010203040506070000002              00000000001010000000000100M1 1 012018102500000000000000000000000000000000000010100000000000000000000000001000000000000000000000000000000000000000000000000010001  03MASTERCARD                    ME1201                                1003413100    2345678901589082115721                                                                                                                                                                     
11234567891201809252018092513424201016831815411122233344455566677788899911120000003              00000000129900000000006319M2 2 022018112500000000000000000000000000000000001299000000000000000000000000351000000000000000000000000000000000000000000000001263901  03MASTERCARD                    ME1201                                1003410575    3456789012554067172924                                                                                                                                                                     
11234567891201809252018092513424201016831815411122233344455566677788899911122000004              00000000129900000000006320M2 1 022018102500000000000000000000000000000000001299000000000000000000000000351000000000000000000000000000000000000000000000001263901  03MASTERCARD                    ME1201                                1003410575    4567890123554067172925                                                                                                                                                                     
112345678912018092520180925140410010168318154AA123BB123CC123DD123EE123FF123GG855003              00000000064900000000006334M1 1 012018102500000000000000000000000000000000000649000000000000000000000000156000000000000000000000000000000000000000000000000633401  03VISA                          ME1201                                1003512039    5678901234541047155023                                                                                                                                                                     
11234567891201809252018092513173601016831815412345678910111213141516171819202000001              00000000001000000000000098M1 1 012018102500000000000000000000000000000000000010000000000000000000000000002000000000000000000000000000000000000000000000000009801  03MASTERCARD                    ME1201                                1003413168    1234567890589082115720                                                                                                                                                                     
11234567891201809252018092513183401016831815410203040506070809010203040506070000002              00000000001010000000000100M1 1 012018102500000000000000000000000000000000000010100000000000000000000000001000000000000000000000000000000000000000000000000010001  03MASTERCARD                    ME1201                                1003413100    2345678901589082115721                                                                                                                                                                     
11234567891201809252018092513424201016831815411122233344455566677788899911120000003              00000000129900000000006319M2 2 022018112500000000000000000000000000000000001299000000000000000000000000351000000000000000000000000000000000000000000000001263901  03MASTERCARD                    ME1201                                1003410575    3456789012554067172924                                                                                                                                                                     
11234567891201809252018092513424201016831815411122233344455566677788899911122000004              00000000129900000000006320M2 1 022018102500000000000000000000000000000000001299000000000000000000000000351000000000000000000000000000000000000000000000001263901  03MASTERCARD                    ME1201                                1003410575    4567890123554067172925                                                                                                                                                                     
112345678912018092520180925140410010168318154AA123BB123CC123DD123EE123FF123GG855003              00000000064900000000006334M1 1 012018102500000000000000000000000000000000000649000000000000000000000000156000000000000000000000000000000000000000000000000633401  03VISA                          ME1201                                1003512039    5678901234541047155023                                                                                                                                                                     
11234567891201809252018092513173601016831815412345678910111213141516171819202000001              00000000001000000000000098M1 1 012018102500000000000000000000000000000000000010000000000000000000000000002000000000000000000000000000000000000000000000000009801  03MASTERCARD                    ME1201                                1003413168    1234567890589082115720                                                                                                                                                                     
11234567891201809252018092513183401016831815410203040506070809010203040506070000002              00000000001010000000000100M1 1 012018102500000000000000000000000000000000000010100000000000000000000000001000000000000000000000000000000000000000000000000010001  03MASTERCARD                    ME1201                                1003413100    2345678901589082115721                                                                                                                                                                     
11234567891201809252018092513424201016831815411122233344455566677788899911120000003              00000000129900000000006319M2 2 022018112500000000000000000000000000000000001299000000000000000000000000351000000000000000000000000000000000000000000000001263901  03MASTERCARD                    ME1201                                1003410575    3456789012554067172924                                                                                                                                                                     
11234567891201809252018092513424201016831815411122233344455566677788899911122000004              00000000129900000000006320M2 1 022018102500000000000000000000000000000000001299000000000000000000000000351000000000000000000000000000000000000000000000001263901  03MASTERCARD                    ME1201                                1003410575    4567890123554067172925                                                                                                                                                                     
112345678912018092520180925140410010168318154AA123BB123CC123DD123EE123FF123GG855003              00000000064900000000006334M1 1 012018102500000000000000000000000000000000000649000000000000000000000000156000000000000000000000000000000000000000000000000633401  03VISA                          ME1201                                1003512039    5678901234541047155023                                                                                                                                                                     
11234567891201809252018092513173601016831815412345678910111213141516171819202000001              00000000001000000000000098M1 1 012018102500000000000000000000000000000000000010000000000000000000000000002000000000000000000000000000000000000000000000000009801  03MASTERCARD                    ME1201                                1003413168    1234567890589082115720                                                                                                                                                                     
11234567891201809252018092513183401016831815410203040506070809010203040506070000002              00000000001010000000000100M1 1 012018102500000000000000000000000000000000000010100000000000000000000000001000000000000000000000000000000000000000000000000010001  03MASTERCARD                    ME1201                                1003413100    2345678901589082115721                                                                                                                                                                     
11234567891201809252018092513424201016831815411122233344455566677788899911120000003              00000000129900000000006319M2 2 022018112500000000000000000000000000000000001299000000000000000000000000351000000000000000000000000000000000000000000000001263901  03MASTERCARD                    ME1201                                1003410575    3456789012554067172924                                                                                                                                                                     
11234567891201809252018092513424201016831815411122233344455566677788899911122000004              00000000129900000000006320M2 1 022018102500000000000000000000000000000000001299000000000000000000000000351000000000000000000000000000000000000000000000001263901  03MASTERCARD                    ME1201                                1003410575    4567890123554067172925                                                                                                                                                                     
112345678912018092520180925140410010168318154AA123BB123CC123DD123EE123FF123GG855003              00000000064900000000006334M1 1 012018102500000000000000000000000000000000000649000000000000000000000000156000000000000000000000000000000000000000000000000633401  03VISA                          ME1201                                1003512039    5678901234541047155023                                                                                                                                                                     
11234567891201809252018092513173601016831815412345678910111213141516171819202000001              00000000001000000000000098M1 1 012018102500000000000000000000000000000000000010000000000000000000000000002000000000000000000000000000000000000000000000000009801  03MASTERCARD                    ME1201                                1003413168    1234567890589082115720                                                                                                                                                                     
11234567891201809252018092513183401016831815410203040506070809010203040506070000002              00000000001010000000000100M1 1 012018102500000000000000000000000000000000000010100000000000000000000000001000000000000000000000000000000000000000000000000010001  03MASTERCARD                    ME1201                                1003413100    2345678901589082115721                                                                                                                                                                     
11234567891201809252018092513424201016831815411122233344455566677788899911120000003              00000000129900000000006319M2 2 022018112500000000000000000000000000000000001299000000000000000000000000351000000000000000000000000000000000000000000000001263901  03MASTERCARD                    ME1201                                1003410575    3456789012554067172924                                                                                                                                                                     
11234567891201809252018092513424201016831815411122233344455566677788899911122000004              00000000129900000000006320M2 1 022018102500000000000000000000000000000000001299000000000000000000000000351000000000000000000000000000000000000000000000001263901  03MASTERCARD                    ME1201                                1003410575    4567890123554067172925                                                                                                                                                                     
112345678912018092520180925140410010168318154AA123BB123CC123DD123EE123FF123GG855003              00000000064900000000006334M1 1 012018102500000000000000000000000000000000000649000000000000000000000000156000000000000000000000000000000000000000000000000633401  03VISA                          ME1201                                1003512039    5678901234541047155023                                                                                                                                                                     
11234567891201809252018092513173601016831815412345678910111213141516171819202000001              00000000001000000000000098M1 1 012018102500000000000000000000000000000000000010000000000000000000000000002000000000000000000000000000000000000000000000000009801  03MASTERCARD                    ME1201                                1003413168    1234567890589082115720                                                                                                                                                                     
11234567891201809252018092513183401016831815410203040506070809010203040506070000002              00000000001010000000000100M1 1 012018102500000000000000000000000000000000000010100000000000000000000000001000000000000000000000000000000000000000000000000010001  03MASTERCARD                    ME1201                                1003413100    2345678901589082115721                                                                                                                                                                     
11234567891201809252018092513424201016831815411122233344455566677788899911120000003              00000000129900000000006319M2 2 022018112500000000000000000000000000000000001299000000000000000000000000351000000000000000000000000000000000000000000000001263901  03MASTERCARD                    ME1201                                1003410575    3456789012554067172924                                                                                                                                                                     
11234567891201809252018092513424201016831815411122233344455566677788899911122000004              00000000129900000000006320M2 1 022018102500000000000000000000000000000000001299000000000000000000000000351000000000000000000000000000000000000000000000001263901  03MASTERCARD                    ME1201                                1003410575    4567890123554067172925                                                                                                                                                                     
112345678912018092520180925140410010168318154AA123BB123CC123DD123EE123FF123GG855003              00000000064900000000006334M1 1 012018102500000000000000000000000000000000000649000000000000000000000000156000000000000000000000000000000000000000000000000633401  03VISA                          ME1201                                1003512039    5678901234541047155023                                                                                                                                                                     
1846523579520170201201702021230000101        dimvtbh5136987kiaxsebghn7548210o875965              00000000239980000000023998A1 1 012017020300000000239980000000023998000000002399800000000239980000000023998000000002399800000000239980000000023998000000002399801  03ELO                           ME  01                                1003654854    5486257412000215155023                        
900000000005                                                                                                                                                                                                                                                                                                                                                                                                                                                                                                                                      
